{
    "_format": "hh-sol-artifact-1",
    "contractName": "MemeForest",
    "sourceName": "contracts/Nft-Air.sol",
    "abi": [
        {
            "anonymous": false,
            "inputs": [
                {
                    "indexed": false,
                    "internalType": "uint256",
                    "name": "MemeId",
                    "type": "uint256"
                },
                {
                    "indexed": false,
                    "internalType": "string",
                    "name": "MemeInfo",
                    "type": "string"
                },
                {
                    "indexed": false,
                    "internalType": "address",
                    "name": "MemeCreator",
                    "type": "address"
                },
                {
                    "indexed": false,
                    "internalType": "bool",
                    "name": "IsMemeStarred",
                    "type": "bool"
                },
                {
                    "indexed": false,
                    "internalType": "uint256",
                    "name": "MemeStars",
                    "type": "uint256"
                },
                {
                    "indexed": false,
                    "internalType": "uint256",
                    "name": "MemeLikes",
                    "type": "uint256"
                },
                {
                    "indexed": false,
                    "internalType": "string",
                    "name": "DateOfCreation",
                    "type": "string"
                },
                {
                    "indexed": false,
                    "internalType": "string",
                    "name": "Filetype",
                    "type": "string"
                },
                {
                    "indexed": false,
                    "internalType": "bool",
                    "name": "IsDownloadable",
                    "type": "bool"
                },
                {
                    "indexed": false,
                    "internalType": "uint256",
                    "name": "Membernum",
                    "type": "uint256"
                },
                {
                    "indexed": false,
                    "internalType": "uint256",
                    "name": "NewNumberMemberMemes",
                    "type": "uint256"
                }
            ],
            "name": "CreateMeme",
            "type": "event"
        },
        {
            "anonymous": false,
            "inputs": [
                {
                    "indexed": false,
                    "internalType": "uint256",
                    "name": "MemeId",
                    "type": "uint256"
                },
                {
                    "indexed": false,
                    "internalType": "uint256",
                    "name": "NewLikesNo",
                    "type": "uint256"
                },
                {
                    "indexed": false,
                    "internalType": "uint256",
                    "name": "CreatorId",
                    "type": "uint256"
                },
                {
                    "indexed": false,
                    "internalType": "address",
                    "name": "liker",
                    "type": "address"
                }
            ],
            "name": "LikingMeme",
            "type": "event"
        },
        {
            "anonymous": false,
            "inputs": [
                {
                    "indexed": false,
                    "internalType": "uint256",
                    "name": "MemberId",
                    "type": "uint256"
                },
                {
                    "indexed": false,
                    "internalType": "string",
                    "name": "MemberName",
                    "type": "string"
                },
                {
                    "indexed": false,
                    "internalType": "string",
                    "name": "Datejoined",
                    "type": "string"
                },
                {
                    "indexed": false,
                    "internalType": "address",
                    "name": "MemberAddress",
                    "type": "address"
                },
                {
                    "indexed": false,
                    "internalType": "uint256",
                    "name": "MemberTotalMemes",
                    "type": "uint256"
                },
                {
                    "indexed": false,
                    "internalType": "uint256",
                    "name": "MemberStarredMemes",
                    "type": "uint256"
                },
                {
                    "indexed": false,
                    "internalType": "uint256",
                    "name": "MemeberDeletedMemes",
                    "type": "uint256"
                },
                {
                    "indexed": false,
                    "internalType": "uint256",
                    "name": "MemberTotalLikes",
                    "type": "uint256"
                }
            ],
            "name": "Memberjoined",
            "type": "event"
        },
        {
            "anonymous": false,
            "inputs": [
                {
                    "indexed": false,
                    "internalType": "uint256",
                    "name": "MemeId",
                    "type": "uint256"
                },
                {
                    "indexed": false,
                    "internalType": "uint256",
                    "name": "NewStarNo",
                    "type": "uint256"
                },
                {
                    "indexed": false,
                    "internalType": "uint256",
                    "name": "CreatorId",
                    "type": "uint256"
                },
                {
                    "indexed": false,
                    "internalType": "address",
                    "name": "CreatorAddress",
                    "type": "address"
                },
                {
                    "indexed": false,
                    "internalType": "uint256",
                    "name": "CreatorStarredMemes",
                    "type": "uint256"
                }
            ],
            "name": "StarredMeme",
            "type": "event"
        },
        {
            "anonymous": false,
            "inputs": [
                {
                    "indexed": false,
                    "internalType": "uint256",
                    "name": "MemeId",
                    "type": "uint256"
                },
                {
                    "indexed": false,
                    "internalType": "uint256",
                    "name": "NewLikesNo",
                    "type": "uint256"
                },
                {
                    "indexed": false,
                    "internalType": "uint256",
                    "name": "CreatorId",
                    "type": "uint256"
                },
                {
                    "indexed": false,
                    "internalType": "address",
                    "name": "Unliker",
                    "type": "address"
                }
            ],
            "name": "UnLikingMeme",
            "type": "event"
        },
        {
            "anonymous": false,
            "inputs": [
                {
                    "indexed": false,
                    "internalType": "uint256",
                    "name": "MemeId",
                    "type": "uint256"
                },
                {
                    "indexed": false,
                    "internalType": "uint256",
                    "name": "NewStarNo",
                    "type": "uint256"
                },
                {
                    "indexed": false,
                    "internalType": "uint256",
                    "name": "CreatorId",
                    "type": "uint256"
                },
                {
                    "indexed": false,
                    "internalType": "address",
                    "name": "CreatorAddress",
                    "type": "address"
                },
                {
                    "indexed": false,
                    "internalType": "uint256",
                    "name": "CreatorStarredMemes",
                    "type": "uint256"
                }
            ],
            "name": "UnStarringMeme",
            "type": "event"
        },
        {
            "inputs": [
                {
                    "internalType": "string",
                    "name": "_name",
                    "type": "string"
                },
                {
                    "internalType": "string",
                    "name": "_date",
                    "type": "string"
                }
            ],
            "name": "CreateMembers",
            "outputs": [],
            "stateMutability": "nonpayable",
            "type": "function"
        },
        {
            "inputs": [
                {
                    "internalType": "string",
                    "name": "memeinfo",
                    "type": "string"
                },
                {
                    "internalType": "address",
                    "name": "_owner",
                    "type": "address"
                },
                {
                    "internalType": "string",
                    "name": "_date",
                    "type": "string"
                },
                {
                    "internalType": "string",
                    "name": "_filetype",
                    "type": "string"
                },
                {
                    "internalType": "bool",
                    "name": "_isDownloadable",
                    "type": "bool"
                }
            ],
            "name": "CreateMemeItems",
            "outputs": [],
            "stateMutability": "nonpayable",
            "type": "function"
        },
        {
            "inputs": [
                {
                    "internalType": "address",
                    "name": "_member",
                    "type": "address"
                }
            ],
            "name": "GetMemberByAddr",
            "outputs": [
                {
                    "components": [
                        {
                            "internalType": "string",
                            "name": "Name",
                            "type": "string"
                        },
                        {
                            "internalType": "address",
                            "name": "MemeberAddress",
                            "type": "address"
                        },
                        {
                            "internalType": "uint256",
                            "name": "MyId",
                            "type": "uint256"
                        },
                        {
                            "internalType": "uint256",
                            "name": "MyMemes",
                            "type": "uint256"
                        },
                        {
                            "internalType": "uint256",
                            "name": "MyStarredMemes",
                            "type": "uint256"
                        },
                        {
                            "internalType": "uint256",
                            "name": "MyDeletedMemes",
                            "type": "uint256"
                        },
                        {
                            "internalType": "string",
                            "name": "Datejoined",
                            "type": "string"
                        }
                    ],
                    "internalType": "struct MemeForest.MemeMembers[]",
                    "name": "",
                    "type": "tuple[]"
                }
            ],
            "stateMutability": "view",
            "type": "function"
        },
        {
            "inputs": [
                {
                    "internalType": "address",
                    "name": "sender",
                    "type": "address"
                }
            ],
            "name": "IsAMember",
            "outputs": [
                {
                    "internalType": "bool",
                    "name": "",
                    "type": "bool"
                }
            ],
            "stateMutability": "view",
            "type": "function"
        },
        {
            "inputs": [
                {
                    "internalType": "uint256",
                    "name": "_id",
                    "type": "uint256"
                }
            ],
            "name": "LikeMeme",
            "outputs": [],
            "stateMutability": "nonpayable",
            "type": "function"
        },
        {
            "inputs": [],
            "name": "NumOfAllMembers",
            "outputs": [
                {
                    "internalType": "uint256",
                    "name": "_value",
                    "type": "uint256"
                }
            ],
            "stateMutability": "view",
            "type": "function"
        },
        {
            "inputs": [],
            "name": "NumOfAllMemes",
            "outputs": [
                {
                    "internalType": "uint256",
                    "name": "_value",
                    "type": "uint256"
                }
            ],
            "stateMutability": "view",
            "type": "function"
        },
        {
            "inputs": [],
            "name": "NumberOfUploads",
            "outputs": [
                {
                    "internalType": "uint256",
                    "name": "",
                    "type": "uint256"
                }
            ],
            "stateMutability": "view",
            "type": "function"
        },
        {
            "inputs": [
                {
                    "internalType": "uint256",
                    "name": "_id",
                    "type": "uint256"
                }
            ],
            "name": "RemoveStarMeme",
            "outputs": [],
            "stateMutability": "nonpayable",
            "type": "function"
        },
        {
            "inputs": [
                {
                    "internalType": "uint256",
                    "name": "_id",
                    "type": "uint256"
                }
            ],
            "name": "StarMeme",
            "outputs": [],
            "stateMutability": "nonpayable",
            "type": "function"
        },
        {
            "inputs": [
                {
                    "internalType": "uint256",
                    "name": "_id",
                    "type": "uint256"
                }
            ],
            "name": "UnLikeMeme",
            "outputs": [],
            "stateMutability": "nonpayable",
            "type": "function"
        },
        {
            "inputs": [
                {
                    "internalType": "uint256",
                    "name": "_id",
                    "type": "uint256"
                },
                {
                    "internalType": "address",
                    "name": "sender",
                    "type": "address"
                }
            ],
            "name": "WhatDidILike",
            "outputs": [
                {
                    "internalType": "bool",
                    "name": "",
                    "type": "bool"
                }
            ],
            "stateMutability": "view",
            "type": "function"
        },
        {
            "inputs": [
                {
                    "internalType": "uint256",
                    "name": "_id",
                    "type": "uint256"
                },
                {
                    "internalType": "address",
                    "name": "sender",
                    "type": "address"
                }
            ],
            "name": "WhatDidIStar",
            "outputs": [
                {
                    "internalType": "bool",
                    "name": "",
                    "type": "bool"
                }
            ],
            "stateMutability": "view",
            "type": "function"
        },
        {
            "inputs": [],
            "name": "fetchAllMemes",
            "outputs": [
                {
                    "components": [
                        {
                            "internalType": "string",
                            "name": "Memeinfo",
                            "type": "string"
                        },
                        {
                            "internalType": "address",
                            "name": "Owner",
                            "type": "address"
                        },
                        {
                            "internalType": "uint256",
                            "name": "fileId",
                            "type": "uint256"
                        },
                        {
                            "internalType": "bool",
                            "name": "starred",
                            "type": "bool"
                        },
                        {
                            "internalType": "uint256",
                            "name": "Stars",
                            "type": "uint256"
                        },
                        {
                            "internalType": "uint256",
                            "name": "Likes",
                            "type": "uint256"
                        },
                        {
                            "internalType": "string",
                            "name": "DateOfCreation",
                            "type": "string"
                        },
                        {
                            "internalType": "string",
                            "name": "FileType",
                            "type": "string"
                        },
                        {
                            "internalType": "bool",
                            "name": "IsDownloadable",
                            "type": "bool"
                        }
                    ],
                    "internalType": "struct MemeForest.MemeFiles[]",
                    "name": "",
                    "type": "tuple[]"
                }
            ],
            "stateMutability": "view",
            "type": "function"
        },
        {
            "inputs": [],
            "name": "fetchMembers",
            "outputs": [
                {
                    "components": [
                        {
                            "internalType": "string",
                            "name": "Name",
                            "type": "string"
                        },
                        {
                            "internalType": "address",
                            "name": "MemeberAddress",
                            "type": "address"
                        },
                        {
                            "internalType": "uint256",
                            "name": "MyId",
                            "type": "uint256"
                        },
                        {
                            "internalType": "uint256",
                            "name": "MyMemes",
                            "type": "uint256"
                        },
                        {
                            "internalType": "uint256",
                            "name": "MyStarredMemes",
                            "type": "uint256"
                        },
                        {
                            "internalType": "uint256",
                            "name": "MyDeletedMemes",
                            "type": "uint256"
                        },
                        {
                            "internalType": "string",
                            "name": "Datejoined",
                            "type": "string"
                        }
                    ],
                    "internalType": "struct MemeForest.MemeMembers[]",
                    "name": "",
                    "type": "tuple[]"
                }
            ],
            "stateMutability": "view",
            "type": "function"
        },
        {
            "inputs": [
                {
                    "internalType": "address",
                    "name": "sender",
                    "type": "address"
                }
            ],
            "name": "fetchMyMeme",
            "outputs": [
                {
                    "components": [
                        {
                            "internalType": "string",
                            "name": "Memeinfo",
                            "type": "string"
                        },
                        {
                            "internalType": "address",
                            "name": "Owner",
                            "type": "address"
                        },
                        {
                            "internalType": "uint256",
                            "name": "fileId",
                            "type": "uint256"
                        },
                        {
                            "internalType": "bool",
                            "name": "starred",
                            "type": "bool"
                        },
                        {
                            "internalType": "uint256",
                            "name": "Stars",
                            "type": "uint256"
                        },
                        {
                            "internalType": "uint256",
                            "name": "Likes",
                            "type": "uint256"
                        },
                        {
                            "internalType": "string",
                            "name": "DateOfCreation",
                            "type": "string"
                        },
                        {
                            "internalType": "string",
                            "name": "FileType",
                            "type": "string"
                        },
                        {
                            "internalType": "bool",
                            "name": "IsDownloadable",
                            "type": "bool"
                        }
                    ],
                    "internalType": "struct MemeForest.MemeFiles[]",
                    "name": "",
                    "type": "tuple[]"
                }
            ],
            "stateMutability": "view",
            "type": "function"
        },
        {
            "inputs": [
                {
                    "internalType": "address",
                    "name": "sender",
                    "type": "address"
                }
            ],
            "name": "fetchMyStarredMemes",
            "outputs": [
                {
                    "components": [
                        {
                            "internalType": "string",
                            "name": "Memeinfo",
                            "type": "string"
                        },
                        {
                            "internalType": "address",
                            "name": "Owner",
                            "type": "address"
                        },
                        {
                            "internalType": "uint256",
                            "name": "fileId",
                            "type": "uint256"
                        },
                        {
                            "internalType": "bool",
                            "name": "starred",
                            "type": "bool"
                        },
                        {
                            "internalType": "uint256",
                            "name": "Stars",
                            "type": "uint256"
                        },
                        {
                            "internalType": "uint256",
                            "name": "Likes",
                            "type": "uint256"
                        },
                        {
                            "internalType": "string",
                            "name": "DateOfCreation",
                            "type": "string"
                        },
                        {
                            "internalType": "string",
                            "name": "FileType",
                            "type": "string"
                        },
                        {
                            "internalType": "bool",
                            "name": "IsDownloadable",
                            "type": "bool"
                        }
                    ],
                    "internalType": "struct MemeForest.MemeFiles[]",
                    "name": "",
                    "type": "tuple[]"
                }
            ],
            "stateMutability": "view",
            "type": "function"
        }
    ],
    "bytecode": "0x608060405234801561001057600080fd5b506001600081905550613688806100286000396000f3fe608060405234801561001057600080fd5b506004361061010b5760003560e01c806386cbee86116100a2578063bd42524a11610071578063bd42524a146102de578063d8f197b6146102fa578063e437a6f414610318578063f695687e14610334578063fe7889d4146103525761010b565b806386cbee86146102445780638c736ca914610262578063928721a31461027e57806395f914cd146102ae5761010b565b806334b76d8a116100de57806334b76d8a1461019657806335f1b834146101c65780633cfbb7fa146101f65780635ddc7b38146102265761010b565b8063059fadb51461011057806312816fc9146101405780631f9ea3d01461015c57806329a261d21461017a575b600080fd5b61012a600480360381019061012591906129eb565b61036e565b6040516101379190612f75565b60405180910390f35b61015a60048036038101906101559190612b5f565b61083b565b005b610164610a67565b6040516101719190613014565b60405180910390f35b610194600480360381019061018f9190612b5f565b610a73565b005b6101b060048036038101906101ab91906129eb565b610d01565b6040516101bd9190612f97565b60405180910390f35b6101e060048036038101906101db91906129eb565b611018565b6040516101ed9190612fb9565b60405180910390f35b610210600480360381019061020b91906129eb565b611073565b60405161021d9190612f75565b60405180910390f35b61022e61156a565b60405161023b9190613014565b60405180910390f35b61024c611576565b6040516102599190613014565b60405180910390f35b61027c60048036038101906102779190612a18565b61157c565b005b61029860048036038101906102939190612b8c565b61187b565b6040516102a59190612fb9565b60405180910390f35b6102c860048036038101906102c39190612b8c565b6118e8565b6040516102d59190612fb9565b60405180910390f35b6102f860048036038101906102f39190612ae7565b611955565b005b610302611bbf565b60405161030f9190612f97565b60405180910390f35b610332600480360381019061032d9190612b5f565b611e6b565b005b61033c612097565b6040516103499190612f75565b60405180910390f35b61036c60048036038101906103679190612b5f565b612412565b005b6060600061037c60026126a0565b9050600080600090505b82811015610462576003600060018361039f9190613308565b815260200190815260200160002060010160009054906101000a900473ffffffffffffffffffffffffffffffffffffffff1673ffffffffffffffffffffffffffffffffffffffff168573ffffffffffffffffffffffffffffffffffffffff16141561044f576000600360006001846104179190613308565b81526020019081526020016000206002015490506003600082815260200190815260200160002060030154925061044d816126ae565b505b808061045a90613491565b915050610386565b50600061046f60016126a0565b90506000808367ffffffffffffffff81111561048e5761048d613567565b5b6040519080825280602002602001820160405280156104c757816020015b6104b46127e0565b8152602001906001900390816104ac5790505b50905060005b8381101561082d576000600760006001846104e89190613308565b81526020019081526020016000206002015490506007600082815260200190815260200160002060010160009054906101000a900473ffffffffffffffffffffffffffffffffffffffff1673ffffffffffffffffffffffffffffffffffffffff168973ffffffffffffffffffffffffffffffffffffffff161415610819576000600760008381526020019081526020016000209050806040518061012001604052908160008201805461059a9061342e565b80601f01602080910402602001604051908101604052809291908181526020018280546105c69061342e565b80156106135780601f106105e857610100808354040283529160200191610613565b820191906000526020600020905b8154815290600101906020018083116105f657829003601f168201915b505050505081526020016001820160009054906101000a900473ffffffffffffffffffffffffffffffffffffffff1673ffffffffffffffffffffffffffffffffffffffff1673ffffffffffffffffffffffffffffffffffffffff168152602001600282015481526020016003820160009054906101000a900460ff1615151515815260200160048201548152602001600582015481526020016006820180546106bb9061342e565b80601f01602080910402602001604051908101604052809291908181526020018280546106e79061342e565b80156107345780601f1061070957610100808354040283529160200191610734565b820191906000526020600020905b81548152906001019060200180831161071757829003601f168201915b5050505050815260200160078201805461074d9061342e565b80601f01602080910402602001604051908101604052809291908181526020018280546107799061342e565b80156107c65780601f1061079b576101008083540402835291602001916107c6565b820191906000526020600020905b8154815290600101906020018083116107a957829003601f168201915b505050505081526020016008820160009054906101000a900460ff1615151515815250508486815181106107fd576107fc613538565b5b60200260200101819052506001856108159190613308565b9450505b50808061082590613491565b9150506104cd565b508095505050505050919050565b600061084760016126a0565b9050600061085560026126a0565b905060008060005b8481101561096757600760006001836108769190613308565b81526020019081526020016000206002015486141561095457600760006001836108a09190613308565b81526020019081526020016000206005015491506001826108c1919061335e565b915081600760006001846108d59190613308565b8152602001908152602001600020600501819055506000600660003373ffffffffffffffffffffffffffffffffffffffff1673ffffffffffffffffffffffffffffffffffffffff168152602001908152602001600020600088815260200190815260200160002060006101000a81548160ff0219169083151502179055505b808061095f90613491565b91505061085d565b5060005b83811015610a2257600360006001836109849190613308565b815260200190815260200160002060010160009054906101000a900473ffffffffffffffffffffffffffffffffffffffff1673ffffffffffffffffffffffffffffffffffffffff163373ffffffffffffffffffffffffffffffffffffffff161415610a0f57600360006001836109fa9190613308565b81526020019081526020016000206002015492505b8080610a1a90613491565b91505061096b565b507f6f22834b15f2c447930318dbe9747ed7ada6d8c46f7dfb94076cbc87fbba88fd85828433604051610a58949392919061317b565b60405180910390a15050505050565b60018060000154905081565b6000610a7f60016126a0565b90506000610a8d60026126a0565b9050600080600080600090505b85811015610bbb5760076000600183610ab39190613308565b815260200190815260200160002060020154871415610ba85760006007600089815260200190815260200160002060030160006101000a81548160ff02191690831515021790555060076000888152602001908152602001600020600401549250600183610b21919061335e565b92508260076000898152602001908152602001600020600401819055506000600560003373ffffffffffffffffffffffffffffffffffffffff1673ffffffffffffffffffffffffffffffffffffffff168152602001908152602001600020600089815260200190815260200160002060006101000a81548160ff0219169083151502179055505b8080610bb390613491565b915050610a9a565b5060005b84811015610cb95760036000600183610bd89190613308565b815260200190815260200160002060010160009054906101000a900473ffffffffffffffffffffffffffffffffffffffff1673ffffffffffffffffffffffffffffffffffffffff163373ffffffffffffffffffffffffffffffffffffffff161415610ca65760036000600183610c4e9190613308565b815260200190815260200160002060020154935060036000858152602001908152602001600020600401549150600182610c88919061335e565b91508160036000868152602001908152602001600020600401819055505b8080610cb190613491565b915050610bbf565b507f8bcd06d50421c39e3015900b77062d4d516032817c21c1bf99961953a6161d978683853385604051610cf19594939291906131c0565b60405180910390a1505050505050565b60606000610d0f60026126a0565b9050600080600167ffffffffffffffff811115610d2f57610d2e613567565b5b604051908082528060200260200182016040528015610d6857816020015b610d55612846565b815260200190600190039081610d4d5790505b50905060005b8381101561100c5760036000600183610d879190613308565b815260200190815260200160002060010160009054906101000a900473ffffffffffffffffffffffffffffffffffffffff1673ffffffffffffffffffffffffffffffffffffffff168673ffffffffffffffffffffffffffffffffffffffff161415610ff957600060036000600184610dff9190613308565b81526020019081526020016000206002015490506000600360008381526020019081526020016000209050806040518060e0016040529081600082018054610e469061342e565b80601f0160208091040260200160405190810160405280929190818152602001828054610e729061342e565b8015610ebf5780601f10610e9457610100808354040283529160200191610ebf565b820191906000526020600020905b815481529060010190602001808311610ea257829003601f168201915b505050505081526020016001820160009054906101000a900473ffffffffffffffffffffffffffffffffffffffff1673ffffffffffffffffffffffffffffffffffffffff1673ffffffffffffffffffffffffffffffffffffffff16815260200160028201548152602001600382015481526020016004820154815260200160058201548152602001600682018054610f569061342e565b80601f0160208091040260200160405190810160405280929190818152602001828054610f829061342e565b8015610fcf5780601f10610fa457610100808354040283529160200191610fcf565b820191906000526020600020905b815481529060010190602001808311610fb257829003601f168201915b505050505081525050848681518110610feb57610fea613538565b5b602002602001018190525050505b808061100490613491565b915050610d6e565b50809350505050919050565b600080600460008473ffffffffffffffffffffffffffffffffffffffff1673ffffffffffffffffffffffffffffffffffffffff16815260200190815260200160002060009054906101000a900460ff16905080915050919050565b6060600061108160026126a0565b9050600080600090505b8281101561115e57600360006001836110a49190613308565b815260200190815260200160002060010160009054906101000a900473ffffffffffffffffffffffffffffffffffffffff1673ffffffffffffffffffffffffffffffffffffffff168573ffffffffffffffffffffffffffffffffffffffff16141561114b5760006003600060018461111c9190613308565b815260200190815260200160002060020154905060036000828152602001908152602001600020600401549250505b808061115690613491565b91505061108b565b50600061116b60026126a0565b905060008267ffffffffffffffff81111561118957611188613567565b5b6040519080825280602002602001820160405280156111c257816020015b6111af6127e0565b8152602001906001900390816111a75790505b5090506000805b8381101561155c576000600760006001846111e49190613308565b815260200190815260200160002060020154905060011515600560008b73ffffffffffffffffffffffffffffffffffffffff1673ffffffffffffffffffffffffffffffffffffffff168152602001908152602001600020600083815260200190815260200160002060009054906101000a900460ff1615151480156112905750600115156007600083815260200190815260200160002060030160009054906101000a900460ff161515145b1561154857600060076000838152602001908152602001600020905080604051806101200160405290816000820180546112c99061342e565b80601f01602080910402602001604051908101604052809291908181526020018280546112f59061342e565b80156113425780601f1061131757610100808354040283529160200191611342565b820191906000526020600020905b81548152906001019060200180831161132557829003601f168201915b505050505081526020016001820160009054906101000a900473ffffffffffffffffffffffffffffffffffffffff1673ffffffffffffffffffffffffffffffffffffffff1673ffffffffffffffffffffffffffffffffffffffff168152602001600282015481526020016003820160009054906101000a900460ff1615151515815260200160048201548152602001600582015481526020016006820180546113ea9061342e565b80601f01602080910402602001604051908101604052809291908181526020018280546114169061342e565b80156114635780601f1061143857610100808354040283529160200191611463565b820191906000526020600020905b81548152906001019060200180831161144657829003601f168201915b5050505050815260200160078201805461147c9061342e565b80601f01602080910402602001604051908101604052809291908181526020018280546114a89061342e565b80156114f55780601f106114ca576101008083540402835291602001916114f5565b820191906000526020600020905b8154815290600101906020018083116114d857829003601f168201915b505050505081526020016008820160009054906101000a900460ff16151515158152505085858151811061152c5761152b613538565b5b60200260200101819052506001846115449190613308565b9350505b50808061155490613491565b9150506111c9565b508195505050505050919050565b60028060000154905081565b60095481565b611584612747565b61158e6001612797565b600061159a60016126a0565b90506040518061012001604052808781526020018673ffffffffffffffffffffffffffffffffffffffff1681526020018281526020016000151581526020016000815260200160008152602001858152602001848152602001831515815250600760008381526020019081526020016000206000820151816000019080519060200190611628929190612899565b5060208201518160010160006101000a81548173ffffffffffffffffffffffffffffffffffffffff021916908373ffffffffffffffffffffffffffffffffffffffff1602179055506040820151816002015560608201518160030160006101000a81548160ff0219169083151502179055506080820151816004015560a0820151816005015560c08201518160060190805190602001906116ca929190612899565b5060e08201518160070190805190602001906116e7929190612899565b506101008201518160080160006101000a81548160ff021916908315150217905550905050600061171860026126a0565b905060008060005b8381101561181a57600360006001836117399190613308565b815260200190815260200160002060010160009054906101000a900473ffffffffffffffffffffffffffffffffffffffff1673ffffffffffffffffffffffffffffffffffffffff168973ffffffffffffffffffffffffffffffffffffffff16141561180757600360006001836117af9190613308565b8152602001908152602001600020600201549250600360008481526020019081526020016000206003015491506001826117e99190613308565b91508160036000858152602001908152602001600020600301819055505b808061181290613491565b915050611720565b507f509614f3fe1e6d51f6b11bea192f0c8e4e0005f7622ae8eae17d22c0a44c44e8848a8a60008060008d8d8d8b8b6040516118609b9a9998979695949392919061302f565b60405180910390a1505050506118746127ad565b5050505050565b600080600560008473ffffffffffffffffffffffffffffffffffffffff1673ffffffffffffffffffffffffffffffffffffffff168152602001908152602001600020600085815260200190815260200160002060009054906101000a900460ff1690508091505092915050565b600080600660008473ffffffffffffffffffffffffffffffffffffffff1673ffffffffffffffffffffffffffffffffffffffff168152602001908152602001600020600085815260200190815260200160002060009054906101000a900460ff1690508091505092915050565b61195d612747565b60001515600460003373ffffffffffffffffffffffffffffffffffffffff1673ffffffffffffffffffffffffffffffffffffffff16815260200190815260200160002060009054906101000a900460ff161515146119f0576040517f08c379a00000000000000000000000000000000000000000000000000000000081526004016119e790612fd4565b60405180910390fd5b6119fa6002612797565b6000611a0660026126a0565b90506040518060e001604052808481526020013373ffffffffffffffffffffffffffffffffffffffff16815260200182815260200160008152602001600081526020016000815260200183815250600360008381526020019081526020016000206000820151816000019080519060200190611a83929190612899565b5060208201518160010160006101000a81548173ffffffffffffffffffffffffffffffffffffffff021916908373ffffffffffffffffffffffffffffffffffffffff16021790555060408201518160020155606082015181600301556080820151816004015560a0820151816005015560c0820151816006019080519060200190611b0f929190612899565b509050506001600460003373ffffffffffffffffffffffffffffffffffffffff1673ffffffffffffffffffffffffffffffffffffffff16815260200190815260200160002060006101000a81548160ff0219169083151502179055507f19068c643aeea291d3f1edbab417b3bdba710ad056f8b11d73d07c9b800c686c81848433600080600080604051611baa9897969594939291906130ef565b60405180910390a150611bbb6127ad565b5050565b60606000611bcd60026126a0565b90506000808267ffffffffffffffff811115611bec57611beb613567565b5b604051908082528060200260200182016040528015611c2557816020015b611c12612846565b815260200190600190039081611c0a5790505b50905060005b83811015611e6157600060036000600184611c469190613308565b81526020019081526020016000206002015490506000600360008381526020019081526020016000209050806040518060e0016040529081600082018054611c8d9061342e565b80601f0160208091040260200160405190810160405280929190818152602001828054611cb99061342e565b8015611d065780601f10611cdb57610100808354040283529160200191611d06565b820191906000526020600020905b815481529060010190602001808311611ce957829003601f168201915b505050505081526020016001820160009054906101000a900473ffffffffffffffffffffffffffffffffffffffff1673ffffffffffffffffffffffffffffffffffffffff1673ffffffffffffffffffffffffffffffffffffffff16815260200160028201548152602001600382015481526020016004820154815260200160058201548152602001600682018054611d9d9061342e565b80601f0160208091040260200160405190810160405280929190818152602001828054611dc99061342e565b8015611e165780601f10611deb57610100808354040283529160200191611e16565b820191906000526020600020905b815481529060010190602001808311611df957829003601f168201915b505050505081525050848681518110611e3257611e31613538565b5b6020026020010181905250600185611e4a9190613308565b945050508080611e5990613491565b915050611c2b565b5080935050505090565b6000611e7760016126a0565b90506000611e8560026126a0565b905060008060005b84811015611f975760076000600183611ea69190613308565b815260200190815260200160002060020154861415611f845760076000600183611ed09190613308565b8152602001908152602001600020600501549150600182611ef19190613308565b91508160076000600184611f059190613308565b8152602001908152602001600020600501819055506001600660003373ffffffffffffffffffffffffffffffffffffffff1673ffffffffffffffffffffffffffffffffffffffff168152602001908152602001600020600088815260200190815260200160002060006101000a81548160ff0219169083151502179055505b8080611f8f90613491565b915050611e8d565b5060005b838110156120525760036000600183611fb49190613308565b815260200190815260200160002060010160009054906101000a900473ffffffffffffffffffffffffffffffffffffffff1673ffffffffffffffffffffffffffffffffffffffff163373ffffffffffffffffffffffffffffffffffffffff16141561203f576003600060018361202a9190613308565b81526020019081526020016000206002015492505b808061204a90613491565b915050611f9b565b507fe89758170802ac2084152ae4b963911fb239a5c7638d97d8cd0a7f139a19f10185828433604051612088949392919061317b565b60405180910390a15050505050565b606060006120a560016126a0565b9050600081905060008267ffffffffffffffff8111156120c8576120c7613567565b5b60405190808252806020026020018201604052801561210157816020015b6120ee6127e0565b8152602001906001900390816120e65790505b50905060005b83811015612408576000600760006001846121229190613308565b81526020019081526020016000206002015490506000600760008381526020019081526020016000209050806040518061012001604052908160008201805461216a9061342e565b80601f01602080910402602001604051908101604052809291908181526020018280546121969061342e565b80156121e35780601f106121b8576101008083540402835291602001916121e3565b820191906000526020600020905b8154815290600101906020018083116121c657829003601f168201915b505050505081526020016001820160009054906101000a900473ffffffffffffffffffffffffffffffffffffffff1673ffffffffffffffffffffffffffffffffffffffff1673ffffffffffffffffffffffffffffffffffffffff168152602001600282015481526020016003820160009054906101000a900460ff16151515158152602001600482015481526020016005820154815260200160068201805461228b9061342e565b80601f01602080910402602001604051908101604052809291908181526020018280546122b79061342e565b80156123045780601f106122d957610100808354040283529160200191612304565b820191906000526020600020905b8154815290600101906020018083116122e757829003601f168201915b5050505050815260200160078201805461231d9061342e565b80601f01602080910402602001604051908101604052809291908181526020018280546123499061342e565b80156123965780601f1061236b57610100808354040283529160200191612396565b820191906000526020600020905b81548152906001019060200180831161237957829003601f168201915b505050505081526020016008820160009054906101000a900460ff161515151581525050846001876123c8919061335e565b815181106123d9576123d8613538565b5b60200260200101819052506001856123f1919061335e565b94505050808061240090613491565b915050612107565b5080935050505090565b600061241e60016126a0565b9050600061242c60026126a0565b9050600080600080600090505b8581101561255a57600760006001836124529190613308565b8152602001908152602001600020600201548714156125475760016007600089815260200190815260200160002060030160006101000a81548160ff021916908315150217905550600760008881526020019081526020016000206004015492506001836124c09190613308565b92508260076000898152602001908152602001600020600401819055506001600560003373ffffffffffffffffffffffffffffffffffffffff1673ffffffffffffffffffffffffffffffffffffffff168152602001908152602001600020600089815260200190815260200160002060006101000a81548160ff0219169083151502179055505b808061255290613491565b915050612439565b5060005b8481101561265857600360006001836125779190613308565b815260200190815260200160002060010160009054906101000a900473ffffffffffffffffffffffffffffffffffffffff1673ffffffffffffffffffffffffffffffffffffffff163373ffffffffffffffffffffffffffffffffffffffff16141561264557600360006001836125ed9190613308565b8152602001908152602001600020600201549350600360008581526020019081526020016000206004015491506001826126279190613308565b91508160036000868152602001908152602001600020600401819055505b808061265090613491565b91505061255e565b507f349ab4b1917a5eff538064bc7e8e6b816129410c66c0301002f2b7bcd724253d86838533856040516126909594939291906131c0565b60405180910390a1505050505050565b600081600001549050919050565b612744816040516024016126c29190613014565b6040516020818303038152906040527ff82c50f1000000000000000000000000000000000000000000000000000000007bffffffffffffffffffffffffffffffffffffffffffffffffffffffff19166020820180517bffffffffffffffffffffffffffffffffffffffffffffffffffffffff83818316178352505050506127b7565b50565b6002600054141561278d576040517f08c379a000000000000000000000000000000000000000000000000000000000815260040161278490612ff4565b60405180910390fd5b6002600081905550565b6001816000016000828254019250508190555050565b6001600081905550565b60008151905060006a636f6e736f6c652e6c6f679050602083016000808483855afa5050505050565b60405180610120016040528060608152602001600073ffffffffffffffffffffffffffffffffffffffff16815260200160008152602001600015158152602001600081526020016000815260200160608152602001606081526020016000151581525090565b6040518060e0016040528060608152602001600073ffffffffffffffffffffffffffffffffffffffff16815260200160008152602001600081526020016000815260200160008152602001606081525090565b8280546128a59061342e565b90600052602060002090601f0160209004810192826128c7576000855561290e565b82601f106128e057805160ff191683800117855561290e565b8280016001018555821561290e579182015b8281111561290d5782518255916020019190600101906128f2565b5b50905061291b919061291f565b5090565b5b80821115612938576000816000905550600101612920565b5090565b600061294f61294a84613238565b613213565b90508281526020810184848401111561296b5761296a61359b565b5b6129768482856133ec565b509392505050565b60008135905061298d8161360d565b92915050565b6000813590506129a281613624565b92915050565b600082601f8301126129bd576129bc613596565b5b81356129cd84826020860161293c565b91505092915050565b6000813590506129e58161363b565b92915050565b600060208284031215612a0157612a006135a5565b5b6000612a0f8482850161297e565b91505092915050565b600080600080600060a08688031215612a3457612a336135a5565b5b600086013567ffffffffffffffff811115612a5257612a516135a0565b5b612a5e888289016129a8565b9550506020612a6f8882890161297e565b945050604086013567ffffffffffffffff811115612a9057612a8f6135a0565b5b612a9c888289016129a8565b935050606086013567ffffffffffffffff811115612abd57612abc6135a0565b5b612ac9888289016129a8565b9250506080612ada88828901612993565b9150509295509295909350565b60008060408385031215612afe57612afd6135a5565b5b600083013567ffffffffffffffff811115612b1c57612b1b6135a0565b5b612b28858286016129a8565b925050602083013567ffffffffffffffff811115612b4957612b486135a0565b5b612b55858286016129a8565b9150509250929050565b600060208284031215612b7557612b746135a5565b5b6000612b83848285016129d6565b91505092915050565b60008060408385031215612ba357612ba26135a5565b5b6000612bb1858286016129d6565b9250506020612bc28582860161297e565b9150509250929050565b6000612bd88383612de1565b905092915050565b6000612bec8383612eb4565b905092915050565b612bfd81613392565b82525050565b612c0c81613392565b82525050565b6000612c1d82613289565b612c2781856132c4565b935083602082028501612c3985613269565b8060005b85811015612c755784840389528151612c568582612bcc565b9450612c61836132aa565b925060208a01995050600181019050612c3d565b50829750879550505050505092915050565b6000612c9282613294565b612c9c81856132d5565b935083602082028501612cae85613279565b8060005b85811015612cea5784840389528151612ccb8582612be0565b9450612cd6836132b7565b925060208a01995050600181019050612cb2565b50829750879550505050505092915050565b612d05816133a4565b82525050565b612d14816133a4565b82525050565b612d23816133da565b82525050565b6000612d348261329f565b612d3e81856132e6565b9350612d4e8185602086016133fb565b612d57816135aa565b840191505092915050565b6000612d6d8261329f565b612d7781856132f7565b9350612d878185602086016133fb565b612d90816135aa565b840191505092915050565b6000612da86018836132f7565b9150612db3826135bb565b602082019050919050565b6000612dcb601f836132f7565b9150612dd6826135e4565b602082019050919050565b6000610120830160008301518482036000860152612dff8282612d29565b9150506020830151612e146020860182612bf4565b506040830151612e276040860182612f57565b506060830151612e3a6060860182612cfc565b506080830151612e4d6080860182612f57565b5060a0830151612e6060a0860182612f57565b5060c083015184820360c0860152612e788282612d29565b91505060e083015184820360e0860152612e928282612d29565b915050610100830151612ea9610100860182612cfc565b508091505092915050565b600060e0830160008301518482036000860152612ed18282612d29565b9150506020830151612ee66020860182612bf4565b506040830151612ef96040860182612f57565b506060830151612f0c6060860182612f57565b506080830151612f1f6080860182612f57565b5060a0830151612f3260a0860182612f57565b5060c083015184820360c0860152612f4a8282612d29565b9150508091505092915050565b612f60816133d0565b82525050565b612f6f816133d0565b82525050565b60006020820190508181036000830152612f8f8184612c12565b905092915050565b60006020820190508181036000830152612fb18184612c87565b905092915050565b6000602082019050612fce6000830184612d0b565b92915050565b60006020820190508181036000830152612fed81612d9b565b9050919050565b6000602082019050818103600083015261300d81612dbe565b9050919050565b60006020820190506130296000830184612f66565b92915050565b600061016082019050613045600083018e612f66565b8181036020830152613057818d612d62565b9050613066604083018c612c03565b613073606083018b612d0b565b613080608083018a612d1a565b61308d60a0830189612d1a565b81810360c083015261309f8188612d62565b905081810360e08301526130b38187612d62565b90506130c3610100830186612d0b565b6130d1610120830185612f66565b6130df610140830184612f66565b9c9b505050505050505050505050565b600061010082019050613105600083018b612f66565b8181036020830152613117818a612d62565b9050818103604083015261312b8189612d62565b905061313a6060830188612c03565b6131476080830187612d1a565b61315460a0830186612d1a565b61316160c0830185612d1a565b61316e60e0830184612d1a565b9998505050505050505050565b60006080820190506131906000830187612f66565b61319d6020830186612f66565b6131aa6040830185612f66565b6131b76060830184612c03565b95945050505050565b600060a0820190506131d56000830188612f66565b6131e26020830187612f66565b6131ef6040830186612f66565b6131fc6060830185612c03565b6132096080830184612f66565b9695505050505050565b600061321d61322e565b90506132298282613460565b919050565b6000604051905090565b600067ffffffffffffffff82111561325357613252613567565b5b61325c826135aa565b9050602081019050919050565b6000819050602082019050919050565b6000819050602082019050919050565b600081519050919050565b600081519050919050565b600081519050919050565b6000602082019050919050565b6000602082019050919050565b600082825260208201905092915050565b600082825260208201905092915050565b600082825260208201905092915050565b600082825260208201905092915050565b6000613313826133d0565b915061331e836133d0565b9250827fffffffffffffffffffffffffffffffffffffffffffffffffffffffffffffffff03821115613353576133526134da565b5b828201905092915050565b6000613369826133d0565b9150613374836133d0565b925082821015613387576133866134da565b5b828203905092915050565b600061339d826133b0565b9050919050565b60008115159050919050565b600073ffffffffffffffffffffffffffffffffffffffff82169050919050565b6000819050919050565b60006133e5826133d0565b9050919050565b82818337600083830152505050565b60005b838110156134195780820151818401526020810190506133fe565b83811115613428576000848401525b50505050565b6000600282049050600182168061344657607f821691505b6020821081141561345a57613459613509565b5b50919050565b613469826135aa565b810181811067ffffffffffffffff8211171561348857613487613567565b5b80604052505050565b600061349c826133d0565b91507fffffffffffffffffffffffffffffffffffffffffffffffffffffffffffffffff8214156134cf576134ce6134da565b5b600182019050919050565b7f4e487b7100000000000000000000000000000000000000000000000000000000600052601160045260246000fd5b7f4e487b7100000000000000000000000000000000000000000000000000000000600052602260045260246000fd5b7f4e487b7100000000000000000000000000000000000000000000000000000000600052603260045260246000fd5b7f4e487b7100000000000000000000000000000000000000000000000000000000600052604160045260246000fd5b600080fd5b600080fd5b600080fd5b600080fd5b6000601f19601f8301169050919050565b7f596f752061726520616c72656164792061206d656d6265720000000000000000600082015250565b7f5265656e7472616e637947756172643a207265656e7472616e742063616c6c00600082015250565b61361681613392565b811461362157600080fd5b50565b61362d816133a4565b811461363857600080fd5b50565b613644816133d0565b811461364f57600080fd5b5056fea264697066735822122022613d13e1382151e4b719261305a856ff3c61b20ed78cbb28d7e13e2d762afb64736f6c63430008070033",
    "linkReferences": {},
    "deployedLinkReferences": {}
}